{
  "contractName": "LoanContract",
  "abi": [
    {
      "anonymous": false,
      "inputs": [
        {
          "indexed": false,
          "internalType": "uint256",
          "name": "id",
          "type": "uint256"
        }
      ],
      "name": "LoanRepaid",
      "type": "event"
    },
    {
      "anonymous": false,
      "inputs": [
        {
          "indexed": false,
          "internalType": "uint256",
          "name": "id",
          "type": "uint256"
        },
        {
          "indexed": false,
          "internalType": "address",
          "name": "borrower",
          "type": "address"
        },
        {
          "indexed": false,
          "internalType": "string",
          "name": "name",
          "type": "string"
        },
        {
          "indexed": false,
          "internalType": "uint256",
          "name": "amount",
          "type": "uint256"
        },
        {
          "indexed": false,
          "internalType": "uint256",
          "name": "interest",
          "type": "uint256"
        }
      ],
      "name": "LoanRequested",
      "type": "event"
    },
    {
      "inputs": [],
      "name": "loanCounter",
      "outputs": [
        {
          "internalType": "uint256",
          "name": "",
          "type": "uint256"
        }
      ],
      "stateMutability": "view",
      "type": "function",
      "constant": true
    },
    {
      "inputs": [
        {
          "internalType": "uint256",
          "name": "",
          "type": "uint256"
        }
      ],
      "name": "loans",
      "outputs": [
        {
          "internalType": "uint256",
          "name": "id",
          "type": "uint256"
        },
        {
          "internalType": "address",
          "name": "borrower",
          "type": "address"
        },
        {
          "internalType": "string",
          "name": "name",
          "type": "string"
        },
        {
          "internalType": "uint256",
          "name": "amount",
          "type": "uint256"
        },
        {
          "internalType": "uint256",
          "name": "interest",
          "type": "uint256"
        },
        {
          "internalType": "bool",
          "name": "repaid",
          "type": "bool"
        }
      ],
      "stateMutability": "view",
      "type": "function",
      "constant": true
    },
    {
      "inputs": [
        {
          "internalType": "string",
          "name": "_name",
          "type": "string"
        },
        {
          "internalType": "uint256",
          "name": "_amount",
          "type": "uint256"
        }
      ],
      "name": "requestLoan",
      "outputs": [],
      "stateMutability": "nonpayable",
      "type": "function"
    },
    {
      "inputs": [],
      "name": "showAllLoans",
      "outputs": [
        {
          "components": [
            {
              "internalType": "uint256",
              "name": "id",
              "type": "uint256"
            },
            {
              "internalType": "address",
              "name": "borrower",
              "type": "address"
            },
            {
              "internalType": "string",
              "name": "name",
              "type": "string"
            },
            {
              "internalType": "uint256",
              "name": "amount",
              "type": "uint256"
            },
            {
              "internalType": "uint256",
              "name": "interest",
              "type": "uint256"
            },
            {
              "internalType": "bool",
              "name": "repaid",
              "type": "bool"
            }
          ],
          "internalType": "struct LoanContract.Loan[]",
          "name": "",
          "type": "tuple[]"
        }
      ],
      "stateMutability": "view",
      "type": "function",
      "constant": true
    },
    {
      "inputs": [
        {
          "internalType": "uint256",
          "name": "_id",
          "type": "uint256"
        }
      ],
      "name": "repayLoan",
      "outputs": [],
      "stateMutability": "payable",
      "type": "function",
      "payable": true
    }
  ],
  "bytecode": "0x608060405234801561001057600080fd5b5061118a806100206000396000f3fe60806040526004361061004a5760003560e01c8063314801601461004f57806334d9289e1461007857806338184fdf146100a3578063ab7b1c89146100ce578063e1ec3c68146100ea575b600080fd5b34801561005b57600080fd5b50610076600480360381019061007191906108ef565b61012c565b005b34801561008457600080fd5b5061008d6102a7565b60405161009a9190610cb2565b60405180910390f35b3480156100af57600080fd5b506100b86102ad565b6040516100c59190610c30565b60405180910390f35b6100e860048036038101906100e39190610943565b6104e8565b005b3480156100f657600080fd5b50610111600480360381019061010c9190610943565b610690565b60405161012396959493929190610d27565b60405180910390f35b60008081548092919061013e90611027565b919050555060006064600a836101549190610edd565b61015e9190610eac565b90506040518060c0016040528060005481526020013373ffffffffffffffffffffffffffffffffffffffff1681526020018481526020018381526020018281526020016000151581525060016000805481526020019081526020016000206000820151816000015560208201518160010160006101000a81548173ffffffffffffffffffffffffffffffffffffffff021916908373ffffffffffffffffffffffffffffffffffffffff1602179055506040820151816002019080519060200190610229929190610781565b50606082015181600301556080820151816004015560a08201518160050160006101000a81548160ff0219169083151502179055509050507fb0fde4f295073c26e8c237a53c63ee0156ea90850e66cdb7d3b8cf415d48488e6000543385858560405161029a959493929190610ccd565b60405180910390a1505050565b60005481565b60606000805467ffffffffffffffff8111156102f2577f4e487b7100000000000000000000000000000000000000000000000000000000600052604160045260246000fd5b60405190808252806020026020018201604052801561032b57816020015b610318610807565b8152602001906001900390816103105790505b5090506000600190505b60005481116104e057600160008281526020019081526020016000206040518060c0016040529081600082015481526020016001820160009054906101000a900473ffffffffffffffffffffffffffffffffffffffff1673ffffffffffffffffffffffffffffffffffffffff1673ffffffffffffffffffffffffffffffffffffffff1681526020016002820180546103cc90610ff5565b80601f01602080910402602001604051908101604052809291908181526020018280546103f890610ff5565b80156104455780601f1061041a57610100808354040283529160200191610445565b820191906000526020600020905b81548152906001019060200180831161042857829003601f168201915b5050505050815260200160038201548152602001600482015481526020016005820160009054906101000a900460ff1615151515815250508260018361048b9190610f37565b815181106104c2577f4e487b7100000000000000000000000000000000000000000000000000000000600052603260045260246000fd5b602002602001018190525080806104d890611027565b915050610335565b508091505090565b60006001600083815260200190815260200160002090508060010160009054906101000a900473ffffffffffffffffffffffffffffffffffffffff1673ffffffffffffffffffffffffffffffffffffffff163373ffffffffffffffffffffffffffffffffffffffff1614610591576040517f08c379a000000000000000000000000000000000000000000000000000000000815260040161058890610c52565b60405180910390fd5b8060050160009054906101000a900460ff16156105e3576040517f08c379a00000000000000000000000000000000000000000000000000000000081526004016105da90610c72565b60405180910390fd5b806004015481600301546105f79190610e56565b3414610638576040517f08c379a000000000000000000000000000000000000000000000000000000000815260040161062f90610c92565b60405180910390fd5b60018160050160006101000a81548160ff0219169083151502179055507f9a7851747cd7ffb3fe0a32caf3da48b31f27cebe131267051640f8b72fc47186826040516106849190610cb2565b60405180910390a15050565b60016020528060005260406000206000915090508060000154908060010160009054906101000a900473ffffffffffffffffffffffffffffffffffffffff16908060020180546106df90610ff5565b80601f016020809104026020016040519081016040528092919081815260200182805461070b90610ff5565b80156107585780601f1061072d57610100808354040283529160200191610758565b820191906000526020600020905b81548152906001019060200180831161073b57829003601f168201915b5050505050908060030154908060040154908060050160009054906101000a900460ff16905086565b82805461078d90610ff5565b90600052602060002090601f0160209004810192826107af57600085556107f6565b82601f106107c857805160ff19168380011785556107f6565b828001600101855582156107f6579182015b828111156107f55782518255916020019190600101906107da565b5b5090506108039190610855565b5090565b6040518060c0016040528060008152602001600073ffffffffffffffffffffffffffffffffffffffff1681526020016060815260200160008152602001600081526020016000151581525090565b5b8082111561086e576000816000905550600101610856565b5090565b600061088561088084610dc0565b610d8f565b90508281526020810184848401111561089d57600080fd5b6108a8848285610fb3565b509392505050565b600082601f8301126108c157600080fd5b81356108d1848260208601610872565b91505092915050565b6000813590506108e98161113d565b92915050565b6000806040838503121561090257600080fd5b600083013567ffffffffffffffff81111561091c57600080fd5b610928858286016108b0565b9250506020610939858286016108da565b9150509250929050565b60006020828403121561095557600080fd5b6000610963848285016108da565b91505092915050565b60006109788383610b89565b905092915050565b61098981610f6b565b82525050565b61099881610f6b565b82525050565b60006109a982610e00565b6109b38185610e23565b9350836020820285016109c585610df0565b8060005b85811015610a0157848403895281516109e2858261096c565b94506109ed83610e16565b925060208a019950506001810190506109c9565b50829750879550505050505092915050565b610a1c81610f7d565b82525050565b610a2b81610f7d565b82525050565b6000610a3c82610e0b565b610a468185610e34565b9350610a56818560208601610fc2565b610a5f8161112c565b840191505092915050565b6000610a7582610e0b565b610a7f8185610e45565b9350610a8f818560208601610fc2565b610a988161112c565b840191505092915050565b6000610ab0602483610e45565b91507f4f6e6c792074686520626f72726f7765722063616e207265706179207468652060008301527f6c6f616e000000000000000000000000000000000000000000000000000000006020830152604082019050919050565b6000610b16601683610e45565b91507f4c6f616e20697320616c726561647920726570616964000000000000000000006000830152602082019050919050565b6000610b56601a83610e45565b91507f496e636f72726563742072657061796d656e7420616d6f756e740000000000006000830152602082019050919050565b600060c083016000830151610ba16000860182610c12565b506020830151610bb46020860182610980565b5060408301518482036040860152610bcc8282610a31565b9150506060830151610be16060860182610c12565b506080830151610bf46080860182610c12565b5060a0830151610c0760a0860182610a13565b508091505092915050565b610c1b81610fa9565b82525050565b610c2a81610fa9565b82525050565b60006020820190508181036000830152610c4a818461099e565b905092915050565b60006020820190508181036000830152610c6b81610aa3565b9050919050565b60006020820190508181036000830152610c8b81610b09565b9050919050565b60006020820190508181036000830152610cab81610b49565b9050919050565b6000602082019050610cc76000830184610c21565b92915050565b600060a082019050610ce26000830188610c21565b610cef602083018761098f565b8181036040830152610d018186610a6a565b9050610d106060830185610c21565b610d1d6080830184610c21565b9695505050505050565b600060c082019050610d3c6000830189610c21565b610d49602083018861098f565b8181036040830152610d5b8187610a6a565b9050610d6a6060830186610c21565b610d776080830185610c21565b610d8460a0830184610a22565b979650505050505050565b6000604051905081810181811067ffffffffffffffff82111715610db657610db56110fd565b5b8060405250919050565b600067ffffffffffffffff821115610ddb57610dda6110fd565b5b601f19601f8301169050602081019050919050565b6000819050602082019050919050565b600081519050919050565b600081519050919050565b6000602082019050919050565b600082825260208201905092915050565b600082825260208201905092915050565b600082825260208201905092915050565b6000610e6182610fa9565b9150610e6c83610fa9565b9250827fffffffffffffffffffffffffffffffffffffffffffffffffffffffffffffffff03821115610ea157610ea0611070565b5b828201905092915050565b6000610eb782610fa9565b9150610ec283610fa9565b925082610ed257610ed161109f565b5b828204905092915050565b6000610ee882610fa9565b9150610ef383610fa9565b9250817fffffffffffffffffffffffffffffffffffffffffffffffffffffffffffffffff0483118215151615610f2c57610f2b611070565b5b828202905092915050565b6000610f4282610fa9565b9150610f4d83610fa9565b925082821015610f6057610f5f611070565b5b828203905092915050565b6000610f7682610f89565b9050919050565b60008115159050919050565b600073ffffffffffffffffffffffffffffffffffffffff82169050919050565b6000819050919050565b82818337600083830152505050565b60005b83811015610fe0578082015181840152602081019050610fc5565b83811115610fef576000848401525b50505050565b6000600282049050600182168061100d57607f821691505b60208210811415611021576110206110ce565b5b50919050565b600061103282610fa9565b91507fffffffffffffffffffffffffffffffffffffffffffffffffffffffffffffffff82141561106557611064611070565b5b600182019050919050565b7f4e487b7100000000000000000000000000000000000000000000000000000000600052601160045260246000fd5b7f4e487b7100000000000000000000000000000000000000000000000000000000600052601260045260246000fd5b7f4e487b7100000000000000000000000000000000000000000000000000000000600052602260045260246000fd5b7f4e487b7100000000000000000000000000000000000000000000000000000000600052604160045260246000fd5b6000601f19601f8301169050919050565b61114681610fa9565b811461115157600080fd5b5056fea26469706673582212203b66e63ffd33118c1cc43e1a47d20b20d2c05c1370fa1d92780dd67b4e8ec5d164736f6c63430008000033",
  "immutableReferences": {},
  "source": "// SPDX-License-Identifier: MIT\npragma solidity ^0.8.0;\n\ncontract LoanContract {\n    struct Loan {\n        uint id;\n        address borrower;\n        string name;\n        uint amount;\n        uint interest;\n        bool repaid;\n    }\n\n    uint public loanCounter;\n    mapping(uint => Loan) public loans;\n\n    event LoanRequested(uint id, address borrower, string name, uint amount, uint interest);\n    event LoanRepaid(uint id);\n\n    function requestLoan(string memory _name, uint _amount) public {\n        loanCounter++;\n        uint interest = (_amount * 10) / 100;\n        loans[loanCounter] = Loan(loanCounter, msg.sender, _name, _amount, interest, false);\n        emit LoanRequested(loanCounter, msg.sender, _name, _amount, interest);\n    }\n\n    function showAllLoans() public view returns (Loan[] memory) {\n        Loan[] memory allLoans = new Loan[](loanCounter);\n        for (uint i = 1; i <= loanCounter; i++) {\n            allLoans[i - 1] = loans[i];\n        }\n        return allLoans;\n    }\n\n    function repayLoan(uint _id) public payable {\n        Loan storage loan = loans[_id];\n        require(msg.sender == loan.borrower, \"Only the borrower can repay the loan\");\n        require(!loan.repaid, \"Loan is already repaid\");\n        require(msg.value == loan.amount + loan.interest, \"Incorrect repayment amount\");\n\n        loan.repaid = true;\n        emit LoanRepaid(_id);\n    }\n}\n",
  "sourcePath": "/home/prateek/Desktop/VI_Sem/Blockchain/Project/contracts/LoanContract.sol",
  "compiler": {
    "name": "solc",
    "version": "0.8.0+commit.c7dfd78e.Emscripten.clang"
  },
  "schemaVersion": "3.4.16",
  "updatedAt": "2024-06-06T19:43:37.410Z",
  "networkType": "ethereum",
  "devdoc": {
    "kind": "dev",
    "methods": {},
    "version": 1
  },
  "userdoc": {
    "kind": "user",
    "methods": {},
    "version": 1
  }
}